:020000040800F2
:100000009006002089010008910100089301000872
:100010009501000897010008990100080000000000
:100020000000000000000000000000009B0100082C
:100030009D010008000000009F010008A1010008C8
:10004000A3010008A3010008A3010008A301000800
:10005000A3010008A3010008A3010008A3010008F0
:10006000A3010008A3010008A3010008A3010008E0
:10007000A3010008A3010008A3010008A3010008D0
:10008000A3010008A3010008A3010008A3010008C0
:10009000A3010008A3010008A3010008A3010008B0
:1000A000A3010008A3010008A3010008A3010008A0
:1000B000A3010008A3010008A3010008A301000890
:1000C000A3010008A3010008A3010008A301000880
:1000D000A3010008A3010008A3010008A301000870
:1000E000A3010008A3010008A301000800F002F822
:1000F00000F03AF80AA090E8000C82448344AAF188
:100100000107DA4501D100F02FF8AFF2090EBAE885
:100110000F0013F0010F18BFFB1A43F0010318473B
:10012000D00D0000F00D0000103A24BF78C878C14F
:10013000FAD8520724BF30C830C144BF04680C60ED
:10014000704700000023002400250026103A28BF35
:1001500078C1FBD8520728BF30C148BF0B60704739
:100160001FB51FBD10B510BD00F083FE1146FFF78F
:10017000F7FF00F066FB00F0A1FE03B4FFF7F2FF0B
:1001800003BC00F0A5FE000009488047094800476D
:10019000FEE7FEE7FEE7FEE7FEE7FEE7FEE7FEE737
:1001A000FEE7FEE704480549054A064B7047000094
:1001B000ED0C0008ED0000089000002090060020E3
:1001C0009002002090020020014605E0002001E09E
:1001D00000BF401C0C28FBD30A00A1F10101F5D19E
:1001E000704710B5044603E04FF47A70FFF7ECFF58
:1001F0002000A4F10104F7D110BD10B5044603E0BE
:100200004FF47A70FFF7EDFF2000A4F10104F7D15D
:1002100010BD000010B5044601205E4908605D482D
:1002200008380068C0B25B490839086008460068B1
:1002300040EA042008600220091D0860FFF7C4FF9F
:10024000022054490860FFF7CCFF10BD10B50446EA
:1002500001205049091F0860081F0068C0B2091F2B
:1002600008600846006840EA042008600220091D72
:100270000860FFF7A9FF022046490860FFF7B1FFB9
:1002800010BD10B5044603E02078FFF7DFFF641CC3
:1002900020780028F8D110BD10B50120FFF7BAFF73
:1002A0000220FFF79EFF10BD70B506460C461EB932
:1002B00004F18000C5B202E004F1C000C5B22846D6
:1002C000FFF7A8FF70BD3EB5044600251CB93020DD
:1002D000FFF7BCFF3EBD0DE00A20B4FBF0F100FBD0
:1002E0001140303029466A1C55B20DF801000A2031
:1002F000B4FBF0F4002CEFD106E0691E49B20D46C4
:100300001DF80100FFF7A2FF002DF6DC00BFE1E7BA
:1003100010B52148806940F008001F4988611D48D8
:100320001438006820F0FF001A49143908600846A4
:10033000006840F0220008604FF02230091D08607C
:100340001420FFF74EFF3020FFF764FF0520FFF772
:1003500048FF3020FFF75EFF0120FFF742FF30200B
:10036000FFF758FF0120FFF73CFF3820FFF752FF4F
:100370000820FFF74FFFFFF78FFF0620FFF74AFF28
:100380000C20FFF747FF0220FFF744FF0220FFF792
:1003900028FF10BD140C014000100240794880690C
:1003A00040F0040077498861774800686FF30F00D8
:1003B000754908600846006842F2222108437249E4
:1003C00008600846006880B20860084600686F4907
:1003D00008436D490860F0206B49103108600F2018
:1003E0000860704710B57CE0002478E00F20664973
:1003F0001031086034B1012C09D0022C0CD0032C30
:1004000014D10EE001206049143108600EE0022092
:100410005D491431086009E004205B49143108602B
:1004200004E0082058491431086000BF00BF0220D2
:10043000FFF7D7FE54480830006810F0100F0DD1B8
:1004400000BF51480830006810F0100FF9D0142098
:10045000FFF7C7FE4E4810F8240010BD4A48083088
:10046000006810F0200F0ED100BF47480830006828
:1004700010F0200FF9D01420FFF7B3FE444800EB32
:1004800084004078E9E740480830006810F0400FE9
:100490000ED100BF3C480830006810F0400FF9D082
:1004A0001420FFF79EFE3A4800EB84008078D4E7E2
:1004B00035480830006810F0800F0ED100BF324878
:1004C0000830006810F0800FF9D01420FFF789FE83
:1004D0002F4800EB8400C078BFE7601CC4B2042C36
:1004E00084DB81E72DE9F04105460E4600270CE04C
:1004F000FFF778FF0446302C07DB392C05DCEC5580
:100500002A20FFF7A3FE781CC7B2B742F0DB002019
:10051000A855BDE8F0812DE9F04105460E460027BB
:100520000CE0FFF75FFF0446302C07DB392C05DCBD
:10053000EC552046FFF78AFE781CC7B2B742F0DBC5
:100540000020A855BDE8F08110B500BF0E48083066
:10055000006810F0100FF9D00B480830006810F058
:10056000200FF3D008480830006810F0400FEDD09D
:1005700005480830006810F0800FE7D01420FFF71E
:1005800030FE10BD001002400008014000008888C5
:10059000DE0E00084FF470403D490860704700B51A
:1005A0003C48806940F004003A4988613848103876
:1005B000006880B23649103908600846006836493C
:1005C0000843334910390860FFF7E4FF00BD4FF4DA
:1005D00080502F49091F086070474FF480502C4904
:1005E000086070474FF400502949091F08607047A0
:1005F0004FF400502649086070474FF4804024496A
:10060000091F086070474FF4804021490860704717
:100610004FF400401E49091F086070474FF4004026
:100620001B49086070474FF470401949091F086062
:10063000704710B5FFF7AEFFFFF7C9FFC820FFF7FF
:10064000D0FDFFF7CFFFC820FFF7CBFDFFF7D5FFA9
:10065000C820FFF7C6FDFFF7DBFFC820FFF7C1FD8D
:1006600010BD10B5FFF7DAFFC820FFF7BAFDFFF79E
:10067000CAFFC820FFF7B5FDFFF7BAFFC820FFF794
:10068000B0FDFFF7AAFFC820FFF7ABFD10BD0000CB
:100690001408014000100240000022224FF4807034
:1006A00019490860704700B51848806940F0040097
:1006B0001649886114481038006820F00F0012496C
:1006C000103908600846006840F002000860FFF733
:1006D000E5FF00BD4FF480700B49091F08607047AB
:1006E00010B50446FFF7F6FF2046FFF77AFDFFF747
:1006F000D5FF10BD10B5FFF7EDFF40F2DC50FFF75E
:1007000070FDFFF7CBFF10BD140801400010024040
:100710000B480C49086070470A4800680A490B4AB0
:1007200002FB0010074908600846006842F22831C1
:10073000B0FBF1F201FB120000F57A707047000087
:1007400078563412000000205FF36E3C0D661900ED
:100750000022002108E0E548405C303802EB8203CB
:1007600000EB4302481CC1B20429F4DBE0480068F6
:10077000824201D1012070470020FCE710B50446F9
:1007800015E0FFF789FDDBA0FFF77BFD00210120CD
:10079000FFF78AFDDAA0FFF774FD2046FFF793FD0F
:1007A000D9A0FFF76EFD0120FFF727FD641E002C86
:1007B000E7D110BD10B5FFF7EDFEFFF76DFDCDA041
:1007C000FFF75FFD00210120FFF76EFDCFA0FFF7CF
:1007D00058FDFFF78FFF0220FFF70FFD642403E0B1
:1007E0002046FFF7CBFF641E002CF9D1FFF754FD24
:1007F000CAA0FFF746FD0220FFF7FFFCFFF74CFD04
:1008000010BD10B5C949CA4800F0F0FA08B9012076
:1008100010BD0020FCE7C748806940F00800C549CA
:100820008861C548006820F07060C34908600846C8
:10083000006840F0006008604020BF491031086047
:100840007047FFF7E8FFFFF763FDFFF7A7FDFFF72E
:10085000A6FEFFF728FFFFF75BFFFFF7E4FEC820C7
:10086000FFF73EFF0120FFF7C8FCFFF793FEAFE064
:10087000FFF712FDB1A0FFF704FD00210120FFF7F3
:1008800013FDB1A0FFF7FDFC00BFAB4808300068C6
:1008900010F0400FF9D1C820FFF7A3FC00BFA64815
:1008A0000830006810F0400FF9D0C820FFF799FC1D
:1008B000FFF7F2FCA8A0FFF7E4FC00210120FFF7FE
:1008C000F3FC04219A48FFF70DFEFFF79AFF08BBDF
:1008D000A4480078401CA3490870FFF7DDFCA2A0E3
:1008E000FFF7CFFC00210120FFF7DEFCA1A0FFF7FE
:1008F000C8FC4FF41670FFF7F3FE0220FFF77DFCF3
:1009000098480078032804DBFFF754FF002095493E
:1009100008705DE0002093490870FFF7FDFE744900
:100920000860FFF7B9FC96A0FFF7ABFC70480068C1
:10093000FFF7C9FC0320FFF760FCFFF7ADFC92A0B6
:10094000FFF79FFC00210120FFF7AEFC0421674860
:10095000FFF7E1FDFFF7FCFE98B9FFF79DFC8DA0C6
:10096000FFF78FFC00210120FFF79EFC8CA0FFF712
:1009700088FC4FF47A70FFF7B3FE0220FFF73DFCCE
:1009800026E0FFF789FC89A0FFF77BFC002101200E
:10099000FFF78AFC87A0FFF774FCFA20FFF7A0FEA0
:1009A000FFF747FE0520FFF728FCFFF775FC83A043
:1009B000FFF767FC0320FFF720FCFFF752FEFFF76D
:1009C0006BFC81A0FFF75DFC0220FFF716FC00BF67
:1009D0004EE710B5FFF760FC74A0FFF752FC002152
:1009E0000120FFF761FC73A0FFF74BFCC820FFF765
:1009F00077FEFFF71EFE0520FFF7FFFBFFF731FE36
:100A0000FFF74AFC70A0FFF73CFC0220FFF7F5FB64
:100A100010BD10B5FFF740FC64A0FFF732FC0021C9
:100A20000120FFF741FC6BA0FFF72BFC4FF47A701D
:100A3000FFF756FE0220FFF7E0FB10BD10B5FFF7F1
:100A40002BFC66A0FFF71DFC00210120FFF72CFC0A
:100A500064A0FFF716FC4FF41670FFF741FE02206A
:100A6000FFF7CBFB10BD00203E490870204908600D
:100A70002F480021016001711C480160017170471D
:100A800010B5FFF709FC2DA0FFF7FBFB00210120AB
:100A9000FFF70AFC56A0FFF7F4FBFFF7C4FD0120A7
:100AA000FFF7ABFBFFF776FDFFF7F6FB10BD10B5C8
:100AB000FFF7F2FB50A0FFF7E4FB00210120FFF756
:100AC000F3FB4FA0FFF7DDFB10BD10B50446FFF7A9
:100AD000E3FB2BA0FFF7D5FB2046FFF7F4FB032039
:100AE000FFF78BFBFFF7D8FB10BD00000F000020C5
:100AF0001400002053595354454D204C4F434B0094
:100B000054494D45203A2000730000005741495494
:100B10002031303020534543000000004C4F434B00
:100B20002052454D4F56454400000000040000206F
:100B30000A00002000100240000C01403246412013
:100B40004C4F434B4552000050524553532053578E
:100B50004954434800000000454E5445522050413E
:100B6000535300000900002057524F4E4720504178
:100B70005353000054525920414741494E00000050
:100B80004F54503A00000000454E544552204F54F7
:100B90005000000057524F4E47204F545000000065
:100BA0004143434553532044454E59004143434537
:100BB000535300004752414E544544004C4F434B61
:100BC000204F50454E0000004C4F434B20434C4FAC
:100BD0005345440044454E494544000057524F4E4A
:100BE0004700000050415353574F5244000000004B
:100BF00052454144590000005052455353000000F3
:100C00005354415254205357495443480000000064
:100C10000CB50020019000906B48006840F48030D3
:100C20006949086000BF6848006800F4003000901F
:100C30000198401C0190009818B90198B0F5A06F78
:100C4000F1D16148006810F4003F02D0012000900B
:100C500001E0002000900098012842D15B48006824
:100C600040F01000594908600846006820F0030071
:100C700008600846006840F002000860524840687A
:100C8000514948600846406848600846406840F45A
:100C9000806048600846406820F47C104860084640
:100CA000406840F4E81048600846006840F08070F2
:100CB000086000BF4448006810F0007FFAD0424846
:100CC000406820F00300404948600846406840F012
:100CD0000200486000BF3C48406800F00C00082853
:100CE000F9D10CBD10B5FFF793FF10BD10B5364814
:100CF000006840F001003449086008464068344903
:100D000008403149486008460068324908402E4989
:100D100008600846006820F48020086008464068A3
:100D200020F4FE0048604FF41F008860FFF7DAFFF0
:100D30004FF000602849086010BD10B50021002068
:100D40000022214B5B6803F00C0121B1042906D07D
:100D5000082928D107E0214B214C236027E01F4BB5
:100D60001F4C236023E0184B5B6803F47010164B94
:100D70005B6803F48032022303EB904022B9194BE5
:100D80004343174C23600DE00F4B5B6813F4003FA7
:100D900004D0144B4343124C236003E00F4B4343F6
:100DA0000F4C236003E00D4B0D4C236000BF00BFD0
:100DB000054B5B68C3F303130B4CE15C084B1B68EA
:100DC000CB40074C236010BD0010024000200240C1
:100DD0000000FFF8FFFFF6FE08ED00E000127A00C9
:100DE0001800002000093D001C0000204FF0013CCD
:100DF00050F8042B51F8043B9A4221D1A2EB0C038A
:100E0000934313EACC1317D150F8042B51F8043B49
:100E10009A4215D1A2EB0C03934313EACC130BD1E6
:100E200050F8042B51F8043B9A4209D1A2EB0C0371
:100E3000934313EACC13DBD04FF00000704700BFA0
:100E4000D01A01BAB1FA81F101F0180122FA01F0C9
:100E5000CB40C1F12001DBB2C0B2C01A2CFA01F3C1
:100E6000D11A914311EAC311E6D170477047704718
:100E70007047754600F028F8AE46050069465346AF
:100E800020F00700854618B020B5FFF78BF9BDE8C4
:100E900020404FF000064FF000074FF000084FF0E1
:100EA000000B21F00701AC46ACE8C009ACE8C00972
:100EB000ACE8C009ACE8C0098D4670470446AFF302
:100EC00000802046FFF759F9004870472C000020A9
:100ED00001491820ABBEFEE7260002007047313200
:100EE000334134353642373839432A302344000001
:100EF000100F0008000000202C000000280100084E
:100F00003C0F00082C00002064060000440100088B
:100F100078563412313233340000000000000000F3
:100F2000000000000000000000A24A0400000000D1
:0C0F30000000000001020304060708098D
:04000005080000ED02
:00000001FF
